:100000000C942A000C943F000C943F000C943F0089
:100010000C943F000C943F000C943F000C943F0064
:100020000C943F000C943F000C943F000C943F0054
:100030000C943F000C943F000C943F000C943F0044
:100040000C943F000C943F000C943F000C943F0034
:100050000C943F0011241FBECFE5D8E0DEBFCDBF1A
:1000600010E0A0E6B0E0E6EDF0E002C005900D92F1
:10007000AE36B107D9F70E945F000C9469000C946A
:10008000000082B984E486BF06B607FEFDCF81B1C9
:10009000887F883AE1F70895AC0120E094EC0AC02B
:1000A000FA01E20FF11D808183B996BF06B607FE03
:1000B000FDCF2F5F81B1887F803C91F7089580EA62
:1000C0000E94410080E690E00E944C0080E090E0B9
:0600D0000895F894FFCF33
:0E00D60048656C6C6F20576F726C64210000DF
:00000001FF
